{
  "contractName": "TodoList",
  "abi": [
    {
      "constant": true,
      "inputs": [],
      "name": "taskCount",
      "outputs": [
        {
          "name": "",
          "type": "uint256"
        }
      ],
      "payable": false,
      "stateMutability": "view",
      "type": "function",
      "signature": "0xb6cb58a5"
    }
  ],
  "bytecode": "0x608060405260008055348015601357600080fd5b506099806100226000396000f3fe608060405260043610603e5763ffffffff7c0100000000000000000000000000000000000000000000000000000000600035041663b6cb58a581146043575b600080fd5b348015604e57600080fd5b5060556067565b60408051918252519081900360200190f35b6000548156fea165627a7a723058207773e478e6e4593ea7297285e0331ff37f8dd0f6e26a4a1f37459c0f8632c06a0029",
  "source": "pragma solidity ^0.5.0;\r\n\r\ncontract TodoList{\r\n  //declare a state variable\r\n  //State variables are written to Blockchain\r\n  //it represents the state of this smart contract\r\n  uint public taskCount = 0;\r\n\r\n}\r\n",
  "sourcePath": "C:/Users/sshar/CodingProjects/EthTodoList/contracts/TodoList.sol",
  "compiler": {
    "name": "solc",
    "version": "0.5.0+commit.1d4f565a.Emscripten.clang"
  },
  "schemaVersion": "3.0.1",
  "updatedAt": "2022-03-13T15:46:19.342Z",
  "devdoc": {
    "methods": {}
  },
  "userdoc": {
    "methods": {}
  }
}